:02000000FB28DB
:1001CA00003414346434FF34043464008001840A33
:1001DA000406031900340406EB280000000000009E
:1001EA000000000000000000000008008313203017
:1001FA0084003730EA20E520B700E620B800E7207F
:10020A00B900E820BA00E920BB0083018029F60181
:10021A00F11F102911291A29F009F109F00A031905
:10022A00F10AF6010314F60D1A29F31F1D291E29D6
:10023A002829F209F309F20A0319F30A0130F40032
:10024A007408F6062829F701F801710870040319E1
:10025A002F2930296E29F5010314F50D40290130A3
:10026A000310F00DF10DFF3E031D35290130F40096
:10027A007408F5074029F11F4329442934294629DE
:10028A00462901300310F70DF80DFF3E031D4729DB
:10029A0071087302031D532970087202031C562940
:1002AA0057295F297008F2027108031CF303F3024D
:1002BA0077145F2901300310F10CF00CFF3E031D87
:1002CA0060290130F502031D6B296C2946296E2924
:1002DA006E297608031D72297829F709F809F70AA1
:1002EA000319F80A78297808F101F1077708F0016B
:1002FA00F0077F290800831603138601FD011030D9
:10030A007D02031C89298A298C29582A582A831292
:10031A00A001A101B001B101831603138613831250
:10032A0003138617F220831603138617A4290130B4
:10033A008312B0070318B10A0030B107A429831247
:10034A00861BA829A9299C29AA291030F000003067
:10035A00F1003108F301F3073008F201F2070C212A
:10036A00700883120313A0070318A10A7108A107D2
:10037A00A201A301B001B10183160313061383126C
:10038A0003130617F220831603130617D429013024
:10039A008312B0070318B10A0030B107D4298312B7
:1003AA00061BD829D929CC29DA291030F0000030C7
:1003BA00F1003108F301F3073008F201F2070C21CA
:1003CA00700883120313A2070318A30A7108A3076C
:1003DA00A401A501B001B101831603138612831289
:1003EA0003138616F220831603138616042A013095
:1003FA008312B0070318B10A0030B107042A831226
:10040A00861A082A092AFC290A2A1030F000003024
:10041A00F1003108F301F3073008F201F2070C2169
:10042A00700883120313A4070318A50A7108A50705
:10043A00A601A701B001B1018316031306128312A4
:10044A0003130616F220831603130616342A013004
:10045A008312B0070318B10A0030B107342A831295
:10046A00061A382A392A2C2A3A2A1030F000003083
:10047A00F1003108F301F3073008F201F2070C2109
:10048A00700883120313A6070318A70A7108A7079F
:10049A000130F9007908FD0710307D02031C562A45
:1004AA00572A8C29582A0F30F90079088312B30089
:1004BA000F30F9007908B4000F30F9007908B50057
:1004CA000F30F9007908B600FF3083160313920043
:1004DA0004308312031392000C3097003208373E1F
:1004EA0084008313000895007A2A83120313B0014B
:1004FA00B101831603138613831203138617F2209E
:10050A00831603138617912A01308312B007031842
:10051A00B10A0030B107912A8312861B952A962ABE
:10052A00892A972A2009F9002109FA00F90A0319E8
:10053A00FA0A30087907FB0031080318310A7A07EA
:10054A00FC007C08803A803C031DAD2A7B083302FC
:10055A000318B02AB12AB92A143083120313A80047
:10056A000030A9000614D62A831203132908803AF8
:10057A00FF0080307F02031DC42A01302802031CB9
:10058A00C72AC82AD12AFF3083120313A8070318DF
:10059A00A90AFF30A907D62A831203130610D62AFE
:1005AA00D62AB001B101831603130613831203136B
:1005BA000617F220831603130617EB2A013083125B
:1005CA00B0070318B10A0030B107EB2A8312061BE1
:1005DA00EF2AF02AE32AF12A2209F9002309FA006C
:1005EA00F90A0319FA0A30087907FB0031080318D7
:1005FA00310A7A07FC007C08803A803C031D072BED
:10060A007B08340203180A2B0B2B1A2B83120313B1
:10061A002B082A04031D122B132B152B02308606D6
:10062A001430AA000030AB00332B831203132B08BB
:10063A00803AFF0080307F02031D252B01302A02F9
:10064A00031C282B292B332BFF3083120313AA07F1
:10065A000318AB0AFF30AB07332B332B8312031378
:10066A00B001B1018316031386128312031386168F
:10067A00F2208316031386164A2B01308312B00721
:10068A000318B10A0030B1074A2B8312861A4E2B7F
:10069A004F2B422B502B2409F9002509FA00F90A9D
:1006AA000319FA0A30087907FB0031080318310ADE
:1006BA007A07FC007C08803A803C031D662B7B0885
:1006CA0035020318692B6A2B722BF4308312031339
:1006DA00AC000130AD0006158F2B831203132D08D1
:1006EA00803AFF0080307F02031D7D2B01302C02EF
:1006FA00031C802B812B8A2BFF3083120313AC0738
:10070A000318AD0AFF30AD078F2B831203130611AE
:10071A008F2B8F2BB001B10183160313061283129C
:10072A0003130616F220831603130616A42B0130B0
:10073A008312B0070318B10A0030B107A42B831241
:10074A00061AA82BA92B9C2BAA2B2609F9002709E4
:10075A00FA00F90A0319FA0A30087907FB00310886
:10076A000318310A7A07FC007C08803A803C031D92
:10077A00C02B7B0836020318C32BC42BE42B83122D
:10078A0003132F082E04031DCB2BCC2BDF2B013098
:10079A00F9007908B2073B083202031CD52BD62B85
:1007AA00D82BB201D82B3208373E840083130008B5
:1007BA009500DF2B1430AE000030AF007A2A831286
:1007CA0003132F08803AFF0080307F02031DEF2BAE
:1007DA0001302E02031CF22BF32B7A2AFF308312EC
:1007EA000313AE070318AF0AFF30AF077A2A7A2A33
:0607FA007A2A7A2A002889
:00000001FF
